:100000000C9489000C94B1000C94B1000C94B100D4
:100010000C94B1000C94B1000C94B1000C94B1009C
:100020000C94B1000C94B1000C94B1000C94F20546
:100030000C94B1000C94B1000C94B1000C94B1007C
:100040000C9450050C94B1000C94C0050C949A05C6
:100050000C94B1000C94B1000C94B1000C94B1005C
:100060000C94EC060C94B100456C656374726F647B
:10007000655F426F617264200D0053756363657341
:1000800066756C6C7920446973636F6E6563746523
:100090006400416464436F6D6D616E643A206675FF
:1000A0006C6C004443006964656E74697479005532
:1000B0006E6B20636D64004F7672666C7700000093
:1000C0000000240027002A0000000000250028006E
:1000D0002B000404040404040404020202020202C9
:1000E00003030303030301020408102040800102FC
:1000F000040810200102040810200000000800027B
:1001000001000003040700000000000000000B08CD
:10011000AA0E11241FBECFEFD8E0DEBFCDBF24E072
:10012000AAE5B1E001C01D92A231B207E1F711E0EA
:10013000A0E0B1E0E6EDF9E202C005900D92AA352B
:10014000B107D9F710E0C8E8D0E004C02197FE015C
:100150000E940F10C738D107C9F70E94C3080C943A
:10016000DE140C940000FC01362FDB0124919D91DC
:100170008A2F831B291304C031962111F7CF0895CC
:10018000211103C09F7D09F4089580E0089590E057
:10019000FC01E650FF4F2491FC01EA51FF4F3491DE
:1001A000FC01EE52FF4FE491EE23C9F0222339F017
:1001B000233001F1A8F4213019F1223029F1F0E0C7
:1001C000EE0FFF1FE853FF4FA591B4918FB7F8943E
:1001D000EC91611126C030953E233C938FBF08956A
:1001E0002730A9F02830C9F0243049F780918000E9
:1001F0008F7D03C0809180008F7780938000DFCF58
:1002000084B58F7784BDDBCF84B58F7DFBCF8091A4
:10021000B0008F778093B000D2CF8091B0008F7DF7
:10022000F9CF3E2BDACFCF93DF9390E0FC01EA5178
:10023000FF4F24918E529F4FFC0184918823D1F06F
:1002400090E0880F991FFC01E254FF4FA591B491F3
:10025000FC01E853FF4FC591D49161110EC09FB7C7
:10026000F8948C91E22FE0958E238C932881E223E1
:10027000E8839FBFDF91CF9108958FB7F894EC91F9
:10028000E22BEC938FBFF6CF3FB7F89480915702E3
:1002900090915802A0915902B0915A0226B5A89B9C
:1002A00005C02F3F19F00196A11DB11D3FBFBA2F08
:1002B000A92F982F8827BC01CD01620F711D811DC8
:1002C000911D42E0660F771F881F991F4A95D1F74D
:1002D000089508950895AF92BF92CF92DF92EF9262
:1002E000FF920F931F93CF93DF936C017B018B01E0
:1002F000040F151FEB015E01AE18BF08C017D10730
:1003000059F06991D601ED91FC910190F081E02DB9
:10031000C6010995892B79F7C501DF91CF911F910E
:100320000F91FF90EF90DF90CF90BF90AF90089526
:10033000FC01538D448D252F30E0842F90E0821BEB
:10034000930B541710F0CF96089501970895FC0170
:10035000918D828D981761F0A28DAE0FBF2FB11DC8
:100360005D968C91928D9F5F9F73928F90E0089520
:100370008FEF9FEF0895FC01918D828D981731F0DA
:10038000828DE80FF11D858D90E008958FEF9FEF2E
:100390000895FC01918D228D892F90E0805C9F4F04
:1003A000821B91098F739927089585E892E00E9436
:1003B000C90121E0892B09F420E0822F089580E013
:1003C00090E0892B29F00E94D50181110C94000046
:1003D0000895FC01A48DA80FB92FB11DA35ABF4FDA
:1003E0002C91848D90E001968F739927848FA68934
:1003F000B7892C93A089B1898C91837080648C9388
:10040000938D848D981306C00288F389E02D808136
:100410008F7D80830895EF92FF920F931F93CF9368
:10042000DF93EC0181E0888F9B8D8C8D98131AC02F
:10043000E889F989808185FF15C09FB7F894EE8916
:10044000FF896083E889F989808183708064808373
:100450009FBF81E090E0DF91CF911F910F91FF90BE
:10046000EF900895F62E0B8D10E00F5F1F4F0F7366
:100470001127E02E8C8D8E110CC00FB607FCFACF21
:10048000E889F989808185FFF5CFCE010E94E901D5
:10049000F1CFEB8DEC0FFD2FF11DE35AFF4FF082F2
:1004A0009FB7F8940B8FEA89FB8980818062CFCF58
:1004B000CF93DF93EC01888D8823B9F0AA89BB899B
:1004C000E889F9898C9185FD03C0808186FD0DC086
:1004D0000FB607FCF7CF8C9185FFF2CF808185FFA7
:1004E000EDCFCE010E94E901E9CFDF91CF910895D0
:1004F0000CB405FC0DC09EBD00000DB407FEFDCF81
:100500009EB58EBD00000DB407FEFDCF8EB50895DB
:100510008EBD00000DB407FEFDCF8EB59EBD000060
:100520000DB407FEFDCF9EB50895CF93DF93C62F80
:10053000D0E0D068D82B60E08AE00E94C700CE01EE
:100540000E947802EC0161E08AE00E94C700CE01BF
:10055000DF91CF910895CF93DF93C82FD0E0DC2FA8
:10056000CC2760E08AE00E94C700CE0181600E9433
:100570007802EC0161E08AE00E94C700CE01DF91C1
:10058000CF910895CF93DF93C82F60E08AE00E9457
:10059000C70080E09C2F0E947802EC0161E08AE0B5
:1005A0000E94C700CE01DF91CF910895CF93DF93D2
:1005B000C82FD0E0DC2FCC2760E08AE00E94C70083
:1005C000CE01906C0E947802EC0161E08AE00E940A
:1005D000C700CE01DF91CF91089520919B01260F96
:1005E0003327331F21323105ECF420910502FC0141
:1005F00090E080E0243069F082E00895A0919B01B2
:100600002191AC0145585E4FA40FB52FB11D2C931D
:100610000196861798F380919B01680F60939B0168
:1006200080E0089581E008951092050281E08093B2
:1006300004021092DF0161E082E10E94C70061E0E4
:1006400083E10E94C700E9EBF0E080818E7F808328
:1006500080818D7F808388E48093B80085E48093D7
:10066000BC000895CF93DF9391E090937A018823A3
:10067000B9F0C091B800D091BA008091BC008A7BDB
:100680008093BC0060E082E10E94C70060E083E1EB
:100690000E94C7000E941403D093BA00C093B80010
:1006A000DF91CF9108950895E091DE018091DD0101
:1006B000E81730F4F0E0E65AFE4F808190E00895AC
:1006C0008FEF9FEF08959091DE018091DD012FEF74
:1006D0003FEF981748F4E92FF0E0E65AFE4F2081EB
:1006E00030E09F5F9093DE01C90108958091DD01A4
:1006F0009091DE01891B990B0895CF92DF92EF92C2
:10070000FF920F931F93CF93DF937C01CB018A015C
:1007100020910B02222389F0EB016B01C40ED51E40
:10072000CC15DD0569F06991D701ED91FC9101903F
:10073000F081E02DC7010995F3CF642F0E94ED02EF
:10074000C801DF91CF911F910F91FF90EF90DF9043
:10075000CF900895CF93DF931F92CDB7DEB7698313
:1007600020910B022223F9F020912E02203258F022
:1007700021E030E0FC013383228390E080E00F90A1
:10078000DF91CF91089580910C02E82FF0E0E35FB4
:10079000FD4F998190838F5F80930C0280932E028E
:1007A00081E090E0ECCF61E0CE0101960E94ED0285
:1007B000F7CF90E080E00895FB0101900020E9F779
:1007C0003197AF01461B570BDC01ED91FC91028084
:1007D000F381E02D09948F929F92AF92BF92EF9296
:1007E000FF920F931F93CF93DF93CDB7DEB7A197FF
:1007F0000FB6F894DEBF0FBECDBF7C01FA01CB016E
:1008000019A2223008F42AE08E010F5D1F4F822EBC
:10081000912CB12CA12CBF01A50194010E94B60F0F
:10082000F901CA016A300CF5605DD8016E938D0143
:10083000232B242B252B79F790E080E0109721F0D3
:10084000BD01C7010E94DC03A1960FB6F894DEBF7C
:100850000FBECDBFDF91CF911F910F91FF90EF9011
:10086000BF90AF909F908F900895695CDECF8F927C
:100870009F92AF92BF92CF92DF92EF92FF920F932F
:100880001F93CF93DF937C01EB016C0182E0C80ED4
:10089000D11C4701E5E08E0E911C10E000E0F6014E
:1008A00041916F0150E070E060E02AE0CE010E94CB
:1008B000EB035C01E881F9810190F081E02D6EE2AB
:1008C000CE0109958A0D9B1D080F191FC814D90464
:1008D00031F7F701458150E070E060E02AE0CE0199
:1008E0000E94EB03800F911FDF91CF911F910F9119
:1008F000FF90EF90DF90CF90BF90AF909F908F9040
:100900000895EF92FF920F931F93CF93DF938C0183
:100910007B01D0E0C0E0F701EC0FFD1F649166237E
:1009200061F0D801ED91FC910190F081E02DC801BA
:100930000995892B11F02196EECF60E371E0C80193
:100940000E94DC038C0F9D1FDF91CF911F910F91AF
:10095000FF90EF90089581E08093510268E670E087
:1009600085E892E00C948104109251026AE770E0ED
:1009700085E892E00E94810485E892E00E94580296
:10098000E5E8F2E0A289B3898C918F7E8C93A289ED
:10099000B3898C91877F8C93A289B3898C918F774F
:1009A0008C93A289B3898C918F7D8C93828D818F5A
:1009B0000895EF92FF920F931F93CF93DF93EC0173
:1009C0007B018A0188819981009729F02A813B81E6
:1009D0002417350788F4B8016F5F7F4F0E947011AC
:1009E000009791F0998388831B830A832C813D8132
:1009F000232B11F4FC0110821D830C83B701888125
:100A000099810E9436120CC088819981009711F05B
:100A10000E94E710198218821D821C821B821A8292
:100A2000CE01DF91CF911F910F91FF90EF9008952C
:100A300085ED8093BC008091070290910802A091FF
:100A40000902B0910A020796A11DB11D23E0B695D7
:100A5000A795979587952A95D1F72091BC0024FDFD
:100A600003C01092050208954091070250910802B8
:100A70006091090270910A02452B462B472B69F3BE
:100A80000097A105B10541F02AE22A95F1F700C0CF
:100A90000197A109B109E1CF809106020C943203BC
:100AA0001F920F920FB60F9211242F933F938F93A3
:100AB0009F93AF93BF938091530290915402A09162
:100AC0005502B09156023091520223E0230F2D3788
:100AD00058F50196A11DB11D209352028093530237
:100AE00090935402A0935502B093560280915702FE
:100AF00090915802A0915902B0915A020196A11DFD
:100B0000B11D8093570290935802A0935902B0935D
:100B10005A02BF91AF919F918F913F912F910F906A
:100B20000FBE0F901F90189526E8230F0296A11D67
:100B3000B11DD2CF1F920F920FB60F9211242F9397
:100B40003F934F935F936F937F938F939F93AF9355
:100B5000BF93EF93FF9385E892E00E94E901FF9134
:100B6000EF91BF91AF919F918F917F916F915F9125
:100B70004F913F912F910F900FBE0F901F9018959E
:100B80001F920F920FB60F9211242F938F939F9362
:100B9000EF93FF93E0919502F09196028081E091AE
:100BA0009B02F0919C0282FD1BC0908180919E026D
:100BB0008F5F8F7320919F02821741F0E0919E0218
:100BC000F0E0EB57FD4F958F80939E02FF91EF91E0
:100BD0009F918F912F910F900FBE0F901F9018959E
:100BE0008081F4CF1F920F920FB60F9211242F9392
:100BF0003F934F935F936F937F938F939F93AF93A5
:100C0000BF93EF93FF9361E082E00E94C700809161
:100C1000CE019091CF01892B79F481E00E94C2022C
:100C20009093BF018093BE018091D801811104C0CF
:100C30001092BF011092BE018091CE019091CF0120
:100C4000019779F482E00E94C2029093C1018093DF
:100C5000C0018091D701811104C01092C10110928E
:100C6000C0018091CE019091CF01029779F483E089
:100C70000E94C2029093C3018093C2018091D60169
:100C8000811104C01092C3011092C2018091CE0163
:100C90009091CF01039779F484E00E94C20290936F
:100CA000C5018093C4018091D501811104C01092C7
:100CB000C5011092C4018091CE019091CF0104979B
:100CC00079F485E00E94C2029093C7018093C60127
:100CD0008091D401811104C01092C7011092C60105
:100CE0008091CE019091CF01059779F486E00E9422
:100CF000C2029093C9018093C8018091D3018111F0
:100D000004C01092C9011092C8018091CE01909147
:100D1000CF01069779F487E00E94C2029093CB013D
:100D20008093CA018091D201811104C01092CB013D
:100D30001092CA018091CE019091CF01079779F46A
:100D400088E00E94C2029093CD018093CC018091F3
:100D5000D101811104C01092CD011092CC01A0915B
:100D6000CE01B091CF01E091CE01F091CF01AA0F59
:100D7000BB1FA254BE4F8D919C91EE0FFF1FE15DF2
:100D8000FD4F918380838091CE019091CF01079791
:100D9000C9F41092CF011092CE0160E082E00E946F
:100DA000C700FF91EF91BF91AF919F918F917F917C
:100DB0006F915F914F913F912F910F900FBE0F90C8
:100DC0001F9018958091CE019091CF01019690933C
:100DD000CF018093CE01E1CF1F920F920FB60F92F9
:100DE00011242F933F934F935F936F937F938F9330
:100DF0009F93AF93BF93EF93FF938091B900887F48
:100E0000803609F44AC0F0F5883209F4A7C018F515
:100E1000803109F49BC0B8F4882309F4F9C0883004
:100E200009F494C0FF91EF91BF91AF919F918F9181
:100E30007F916F915F914F913F912F910F900FBED6
:100E40000F901F901895883109F488C0803251F7AF
:100E50008093030214C0803409F49DC040F48033B1
:100E6000B9F38833F9F68093030285ECB0C080357E
:100E700009F485C0883509F496C0883499F60E9433
:100E80001805D0CF883909F48CC038F5883729F097
:100E900050F4883611F0803729F683E080930502FC
:100EA0001092BD0157C0883809F47BC0803919F011
:100EB000803809F0B7CF8091BD01803208F071C051
:100EC000E091BD0181E08E0F8093BD018091BB0058
:100ED000F0E0E356FE4F80833DC0803B39F0E0F404
:100EE000803A09F479C0883A09F09CCF84E0809375
:100EF000050210929C0110929B01E091DB01F091A0
:100F0000DC01099580919B0181110FC081E08093E4
:100F10009B0110927B0109C0803C09F4A6CF883C5C
:100F200009F4A3CF883B09F07DCFE0919C0181E0DB
:100F30008E0F80939C01F0E0E558FE4F80818093F6
:100F4000BB0090919C0180919B0129C08091E001A0
:100F50008093BB0085EC8093BC0064CF909102022B
:100F600080910102981758F5E091020281E08E0FFE
:100F700080930202F0E0EF51FE4F8081E9CFE091D3
:100F8000020281E08E0F809302028091BB00F0E0AC
:100F9000EF51FE4F808390910202809101029817D9
:100FA000C8F285E8D8CFE091020281E08E0F8093ED
:100FB00002028091BB00F0E0EF51FE4F80838091F0
:100FC000040281115CCF81E08093DF0184EA809389
:100FD000BC001092050226CF85EC8093BC001092D5
:100FE00005028091BD01803230F4E091BD01F0E056
:100FF000E356FE4F10826091BD0170E0E091D9018F
:10100000F091DA018DE991E009951092BD010ACFC6
:101010001092030234CFA5E8B2E013961C921E9200
:10102000129748EE53E060E070E014964D935D93A4
:101030006D937C9317978AE091E011969C938E9321
:1010400085EC90E01D969C938E931C9784EC90E029
:101050001F969C938E931E9780EC90E051969C93E4
:101060008E93509781EC90E053969C938E93529779
:1010700082EC90E055969C938E93549786EC90E08A
:1010800057969C938E93569759961C9259975A96B9
:101090001C925A975B961C925B975C961C925C978D
:1010A000EBE5F2E0138212824483558366837783F3
:1010B0008CE191E091838083E7E6F2E08EE291E0BB
:1010C000918380831282138214821582EDE6F2E00E
:1010D000918380831282138214821582E3E7F2E007
:1010E000918380831282138214821582E8E0F4E0F7
:1010F000918380831282138214821582E2E2F3E0EC
:101100008BE393E0918380838AE0828383E693E09C
:10111000958384838FE086831382178211861086DD
:1011200013861286F587E487B787A68781E2808BCE
:101130008DE0818B8CEC93E0938B828B8CE390E041
:10114000958B848B178A168A108EEFE7F2E0118256
:101150001082138212821582148250E040E062E312
:1011600071E0CF010E94D904E9E7F2E01182108218
:10117000138212821582148250E040E062E371E033
:10118000CF010C94D904CF93DF93CDB7DEB7C05411
:10119000D1090FB6F894DEBF0FBECDBF789484B5E9
:1011A000826084BD84B5816084BD85B5826085BD63
:1011B00085B5816085BD80916E00816080936E00F1
:1011C00010928100809181008260809381008091E3
:1011D0008100816080938100809180008160809394
:1011E00080008091B10084608093B1008091B00054
:1011F00081608093B00080917A00846080937A004F
:1012000080917A00826080937A0080917A00816078
:1012100080937A0080917A00806880937A0010929F
:10122000C1001FB7F8948091D001811127C0ECED67
:10123000F0E08491E0EFF0E09491E82FF0E0EE0F21
:10124000FF1FE254FF4FA591B491EC91E92321F4E3
:1012500061E08AE00E94C70061E08AE00E94130119
:101260008CB580618CBD8CB580648CBD61E08DE0F7
:101270000E94130161E08BE00E9413018091D00174
:101280008F5F8093D0011FBF61E08AE00E9413014D
:1012900060E08FE00E94130160E080E10E94130192
:1012A00060E081E10E94130160E086E00E9413018A
:1012B00060E087E00E941301809125039091240350
:1012C000891708F006C294E0899F90011124E091EB
:1012D0002203F0912303E20FF31F2BEA34E0338360
:1012E000228326EA30E0318320838F5F80932503B9
:1012F0008091250390912403891708F0F1C1A4E09F
:101300008A9F90011124E0912203F0912303E20FC0
:10131000F31F24EB34E03383228323EA30E031836C
:1013200020838F5F8093250361E084E00E94130196
:1013300061E085E00E94130161E08AE00E94C7003D
:1013400080917A00887F80937A0080917A0084600F
:1013500080937A00E0919502F091960282E080837A
:10136000E0919102F09192021082E0919302F0914B
:10137000940287E0808310929D02E0919902F0919F
:101380009A0286E08083E0919702F0919802808132
:1013900080618083E0919702F0919802808188605B
:1013A0008083E0919702F091980280818068808329
:1013B000E0919702F091980280818F7D808380E593
:1013C0008CBD81E08DBD0E9444014B015C013AEF70
:1013D000C32ED12CE12CF12C0E944401681979090B
:1013E0008A099B09683E734081059105A8F3B1E025
:1013F000CB1AD108E108F108E8EE8E0EE3E09E1E5C
:10140000A11CB11CC114D104E104F10429F76EED53
:1014100080E00E94950260E281E00E94950268E20D
:1014200082E00E94950260E083E00E94950268EDF0
:1014300084E00E94950260E085E00E94950260E0F1
:1014400086E00E94950260E087E00E9495026EE1CE
:1014500088E00E94950265E089E00E9495026BE2B7
:101460008AE00E94950266E08BE00E94950265E0AA
:101470008CE00E94950261E08DE00E94950260E0A0
:101480008EE00E94950260E08FE00E94950260E08D
:1014900080E10E94950260E081E10E9495028EE069
:1014A0000E94D6028EE00E94D6028EE00E94D602F2
:1014B000182F8FE00E94D6028FE00E94D6028FE0A4
:1014C0000E94D602F82E01E00093D801612F6260DD
:1014D0008EE00E9495020093D701612F66608EE036
:1014E0000E9495020093D601612F6E608EE00E94EB
:1014F00095020093D501612F6E618EE00E949502E6
:101500000093D401612F6E6A8EE00E9495020093D1
:10151000D3011E6E612F8EE00E9495020093D201CE
:10152000612F8EE00E9495020093D1016F2D6160C2
:101530008FE00E94950260E08AE00E94C70080E090
:1015400095E50E94780261E08AE00E94C70009E008
:1015500010E088E20E94D60201501109D1F781E023
:101560000E94AB0282E00E94AB0283E00E94AB02C9
:1015700084E00E94AB0285E00E94AB0286E00E94FC
:10158000AB0287E00E94AB0288E00E94AB0281E0E0
:101590000E94C20282E00E94C20261E082E00E94D8
:1015A00013011092DE011092DD0110920C021092D4
:1015B0002E020E94140389E691E09093DC0180934F
:1015C000DB018AE691E09093DA018093D90181E012
:1015D00080930B0288E380932D0260EF8BE592E00D
:1015E0000E94AA036CE08BE592E00E94AA0310918E
:1015F0002E02113208F0A0C00E9444016B017C0150
:1016000080910502811173C082E08093050281E020
:10161000809304028FEF80930302109202021093D2
:101620000102ADE0B2E0E1EEF1E080E0181364C247
:101630001092E0018091E00180678093E001809149
:10164000DF01813009F05CC21092DF010E94440189
:101650006B017C018091E0018093BB0080910702C7
:1016600090910802A0910902B0910A02892B8A2B5D
:101670008B2BA1F00E9444010091070210910802F7
:101680002091090230910A026C197D098E099F0987
:10169000061717072807390708F44AC08091BC00CD
:1016A00083FDD8CF85EC8093BC000E9444016B0180
:1016B0007C0180910502823009F424C280910302EA
:1016C0008F3FD1F1809103028032B1F1809103020A
:1016D00033C062E970E085E892E00E94810408CEA0
:1016E00062E970E085E892E00E9481041DCE80915D
:1016F000070290910802A0910902B0910A02892B79
:101700008A2B8B2B09F47CCF0E9444018090070226
:1017100090900802A0900902B0900A026C197D090D
:101720008E099F0986169706A806B90608F068CFA5
:10173000809106020E94320310920C0210922E0237
:1017400010920B0260E082E00E94C7008091B60018
:101750008F798093B600F89480918100877E8860AD
:1017600080938100809180008C7F809380008091A5
:101770008100887F81608093810080ED97E0909365
:1017800089008093880080916F00826080936F0051
:10179000789495E3492E91E0592ECE0101965C0193
:1017A00020E0622E20E0722E8EE1382E8091B9006A
:1017B0008C7F8093B9003092B80041E050E063E341
:1017C00071E089E792E00E94D90480915102882358
:1017D00009F405C2F89480912F0290913002092EED
:1017E000000CAA0BBB0B80934D0290934E02A0936A
:1017F0004F02B0935002789460914D0270914E0266
:1018000080914F02909150020E94BD0E24E13EEA69
:1018100047E45EE30E94F80E0E94151070934C029C
:1018200060934B02F8948091310290913202092E1C
:10183000000CAA0BBB0B80934D0290934E02A09319
:101840004F02B0935002789460914D0270914E0215
:1018500080914F02909150020E94BD0E24E13EEA19
:1018600047E45EE30E94F80E0E94151070934A024E
:1018700060934902F8948091330290913402092ECA
:10188000000CAA0BBB0B80934D0290934E02A093C9
:101890004F02B0935002789460914D0270914E02C5
:1018A00080914F02909150020E94BD0E24E13EEAC9
:1018B00047E45EE30E94F80E0E9415107093480200
:1018C00060934702F8948091350290913602092E78
:1018D000000CAA0BBB0B80934D0290934E02A09379
:1018E0004F02B0935002789460914D0270914E0275
:1018F00080914F02909150020E94BD0E24E13EEA79
:1019000047E45EE30E94F80E0E94151070934602B1
:1019100060934502F8948091370290913802092E25
:10192000000CAA0BBB0B80934D0290934E02A09328
:101930004F02B0935002789460914D0270914E0224
:1019400080914F02909150020E94BD0E24E13EEA28
:1019500047E45EE30E94F80E0E9415107093440263
:1019600060934302F8948091390290913A02092ED3
:10197000000CAA0BBB0B80934D0290934E02A093D8
:101980004F02B0935002789460914D0270914E02D4
:1019900080914F02909150020E94BD0E24E13EEAD8
:1019A00047E45EE30E94F80E0E9415107093420215
:1019B00060934102F89480913B0290913C02092E81
:1019C000000CAA0BBB0B80934D0290934E02A09388
:1019D0004F02B0935002789460914D0270914E0284
:1019E00080914F02909150020E94BD0E24E13EEA88
:1019F00047E45EE30E94F80E0E94151070934002C7
:101A000060933F02F89480913D0290913E02092E2E
:101A1000000CAA0BBB0B80934D0290934E02A09337
:101A20004F02B0935002789460914D0270914E0233
:101A300080914F02909150020E94BD0E24E13EEA37
:101A400047E45EE30E94F80E0E9415107F936F93A7
:101A5000809140028F9380913F028F938091420248
:101A60008F93809141028F93809144028F93809154
:101A700043028F93809146028F93809145028F930A
:101A8000809148028F93809147028F9380914A0200
:101A90008F93809149028F9380914C028F93809114
:101AA0004B028F935F924F92BF92AF920E943D1272
:101AB000B50185E892E00E94DC0360E371E085E80F
:101AC00092E00E94DC0350E040E062E371E08FE7C7
:101AD00092E00E94D9040FB6F894DEBF0FBECDBFCE
:101AE0006114710409F462CE0E94D501882309F4BF
:101AF0005DCE0E94000058CE9D9191938F5F96CD50
:101B000085EED1CD8091070290910802A091090243
:101B1000B0910A02892B8A2B8B2B09F4CACD0E9423
:101B200044010091070210910802209109023091AE
:101B30000A026C197D098E099F09061717072807E5
:101B4000390708F0B6CDF4CD909133038913DBC08B
:101B50008091380390913903009709F440C0E091D7
:101B60003403F09135033081231339C020913A03B7
:101B70002111C4C0E80FF91F1082E0902E03F090ED
:101B80002F03809030039090310300913403109123
:101B900035030F5F1F4FF7012380C080D1802220C3
:101BA00009F457C0B801D6018D919C910E94B300F1
:101BB0002A94882309F449C09F828E821A8309835C
:101BC0008B831D821C82D6011296ED91FC91C5017A
:101BD0000995109239031092380310923A038091BC
:101BE000300390913103009709F47ACFDC01ED9135
:101BF000FC910084F185E02D0995181619060CF06A
:101C00006FCF8091300390913103DC01ED91FC9115
:101C10000284F385E02D099520913203821394CF3D
:101C2000109239031092380310923A03E091340372
:101C3000F0913503808380913803909139030196A8
:101C40009093390380933803CACFB4E0CB0ED11CF4
:101C5000A6CFF7012780C480D5802220E9F0B80103
:101C6000D6018D919C910E94B3002A94882381F023
:101C70009F828E821A8309838B831D821C82D601E8
:101C80001596ED91FC9141E0B501C6010995A1CFF2
:101C9000B7E0CB0ED11CE1CFF701C284D384C114CD
:101CA000D104F1F0B801D60112968D919C910E9459
:101CB000B300882389F09F828E821A8309838B83E5
:101CC0001D821C82D601ED91FC910190F081E02DE6
:101CD000B501C60109957DCFF601C480D580DFCF5F
:101CE000D7011896ED91FC91309711F0099571CFBD
:101CF0006FEA70E0C4010E9481046BCF67EB70E073
:101D000085E892E0F8CF90913A03911168CFE09185
:101D10003403F09135032091380330913903A90140
:101D20004F5F5F4F5093390340933803E20FF31F27
:101D300080838091360390913703019721E0409191
:101D40003803509139034817590708F420E02093CD
:101D50003A0345CF8091790290917A02009711F071
:101D60000E94E71080917F0290918002009711F00D
:101D70000C94E7100895E89409C097FB3EF4909501
:101D80008095709561957F4F8F4F9F4F9923A9F054
:101D9000F92F96E9BB279395F695879577956795E3
:101DA000B795F111F8CFFAF4BB0F11F460FF1BC027
:101DB0006F5F7F4F8F4F9F4F16C0882311F096E9BA
:101DC00011C0772321F09EE8872F762F05C0662368
:101DD00071F096E8862F70E060E02AF09A95660F21
:101DE000771F881FDAF7880F9695879597F90895DA
:101DF0000E940B0F0C947C0F0E946E0F38F00E9413
:101E0000750F20F0952311F00C94650F0C946B0F57
:101E100011240C94B00F0E948D0F70F3959FC1F3A5
:101E2000950F50E0551F629FF001729FBB27F00D88
:101E3000B11D639FAA27F00DB11DAA1F649F6627DD
:101E4000B00DA11D661F829F2227B00DA11D621F2C
:101E5000739FB00DA11D621F839FA00D611D221FE6
:101E6000749F3327A00D611D231F849F600D211DCA
:101E7000822F762F6A2F11249F5750409AF0F1F04D
:101E800088234AF0EE0FFF1FBB1F661F771F881FB6
:101E900091505040A9F79E3F510580F00C94650F7A
:101EA0000C94B00F5F3FE4F3983ED4F3869577959A
:101EB0006795B795F795E7959F5FC1F7FE2B880F5C
:101EC000911D9695879597F9089597F99F6780E8F2
:101ED00070E060E008959FEF80EC089500240A947C
:101EE0001616170618060906089500240A941216F5
:101EF0001306140605060895092E0394000C11F428
:101F0000882352F0BB0F40F4BF2B11F460FF04C0D4
:101F10006F5F7F4F8F4F9F4F089557FD9058440F2D
:101F2000551F59F05F3F71F04795880F97FB991F38
:101F300061F09F3F79F087950895121613061406F5
:101F4000551FF2CF4695F1DF08C016161706180682
:101F5000991FF1CF86957105610508940895E8945D
:101F6000BB2766277727CB0197F90895A1E21A2EA0
:101F7000AA1BBB1BFD010DC0AA1FBB1FEE1FFF1F2D
:101F8000A217B307E407F50720F0A21BB30BE40B7D
:101F9000F50B661F771F881F991F1A9469F76095C4
:101FA0007095809590959B01AC01BD01CF0108957E
:101FB0002F923F924F925F926F927F928F929F9259
:101FC000AF92BF92CF92DF92EF92FF920F931F9347
:101FD000CF93DF93CDB7DEB7CA1BDB0B0FB6F894F8
:101FE000DEBF0FBECDBF09942A88398848885F8438
:101FF0006E847D848C849B84AA84B984C884DF80A9
:10200000EE80FD800C811B81AA81B981CE0FD11D8C
:102010000FB6F894DEBF0FBECDBFED010895EE0FF1
:10202000FF1F0590F491E02D09940E941C10689404
:10203000B1110C94B00F08950E94950F88F09F572E
:1020400098F0B92F9927B751B0F0E1F0660F771FDC
:10205000881F991F1AF0BA95C9F714C0B13091F0D2
:102060000E94AF0FB1E008950C94AF0F672F782F47
:102070008827B85F39F0B93FCCF386957795679597
:10208000B395D9F73EF490958095709561957F4F03
:102090008F4F9F4F08950F931F93CF93DF938230FD
:1020A000910510F482E090E0E0911004F0911104A9
:1020B00030E020E0B0E0A0E0309799F42115310540
:1020C00009F44AC0281B390B24303105D8F58A8120
:1020D0009B816115710589F1FB0193838283FE0168
:1020E00011C0408151810281138148175907E0F0E6
:1020F0004817590799F4109761F012960C931297AC
:1021000013961C933296CF01DF91CF911F910F91BF
:1021100008950093100410931104F4CF2115310594
:1021200051F04217530738F0A901DB019A01BD01B4
:10213000DF01F801C1CFEF01F9CF90931104809333
:102140001004CDCFFE01E20FF31F81939193225033
:10215000310939832883D7CF20910E0430910F04A1
:10216000232B41F4209102013091030130930F049D
:1021700020930E04209100013091010121153105B9
:1021800041F42DB73EB74091040150910501241B45
:10219000350BE0910E04F0910F04E217F307A0F461
:1021A0002E1B3F0B2817390778F0AC014E5F5F4FAD
:1021B0002417350748F04E0F5F1F50930F044093CC
:1021C0000E04819391939FCFF0E0E0E09CCFCF93FA
:1021D000DF930097E9F0FC01329713821282A091FD
:1021E0001004B0911104ED0130E020E01097A1F44B
:1021F00020813181820F931F20910E0430910F04B2
:102200002817390709F061C0F0930F04E0930E041A
:10221000DF91CF910895EA01CE17DF07E8F54A81F3
:102220005B819E0141155105B1F7E901FB83EA830A
:1022300049915991C40FD51FEC17FD0761F48081B6
:1022400091810296840F951FE90199838883828189
:1022500093819B838A83F0E0E0E012968D919C91BC
:1022600013970097B9F52D913C911197CD010296E6
:10227000820F931F20910E0430910F042817390705
:1022800039F6309751F51092110410921004B09362
:102290000F04A0930E04BCCFD383C283408151812D
:1022A000840F951FC817D90761F44E5F5F4F88816F
:1022B0009981480F591F518340838A819B81938361
:1022C00082832115310509F0B0CFF0931104E0931A
:1022D00010049ECFFD01DC01C0CF13821282D7CF44
:1022E000B0E0A0E0E6E7F1E10C94DA0F8C01009792
:1022F00051F4CB010E944B108C01C801CDB7DEB761
:10230000E0E10C94F60FFC01E60FF71F9C01225050
:102310003109E217F30708F49DC0D901CD91DC9192
:102320001197C617D70798F0C530D10530F3CE0105
:1023300004978617970708F3C61BD70B2297C193FC
:10234000D1936D937C93CF010E94E710D6CF5B01B0
:10235000AC1ABD0A4C018C0E9D1EA0911004B091C8
:102360001104512C412CF12CE12C109731F5809166
:102370000E0490910F048815990509F05CC046166B
:10238000570608F058C08091000190910101009714
:1023900041F48DB79EB74091040150910501841B13
:1023A000950BE817F90708F055C0F0930F04E09378
:1023B0000E04F90171836083A0CF8D919C911197D8
:1023C00012966C90129713967C901397A815B905E6
:1023D00059F56C0142E0C40ED11CCA14DB0420F193
:1023E000AC014A195B09DA011296159780F06282F6
:1023F000738251834083D9016D937C93E114F1047E
:1024000071F0D7011396FC93EE93129776CF229634
:102410008C0F9D1FF90191838083F301EFCFF0931F
:102420001104E093100469CF4816590608F42C01F2
:102430007D01D3019ACFCB010E944B107C01009704
:1024400049F0AE01B8010E942D12C8010E94E710A8
:10245000870153CF10E000E050CFFB01DC0102C048
:1024600001900D9241505040D8F70895FB01DC01D6
:1024700001900D920020E1F70895AEE0B0E0E3E4B2
:10248000F2E10C94E60F0D891E8986E08C831A8395
:1024900009838FEF9FE79E838D83AE01475E5F4F79
:1024A0006F89788DCE0101960E9460122F81388548
:1024B000020F131FF80110822E96E4E00C94021014
:1024C000ABE0B0E0E6E6F2E10C94D80F7C013B0112
:1024D0008A01FC0117821682838181FFC8C1CE0167
:1024E00001965C01F7019381F30193FD859193FFC0
:1024F00081913F01882309F453C1853239F493FD5A
:10250000859193FF81913F01853229F4B70190E0D5
:102510000E945014E7CF912C212C312CFFE1F315B0
:1025200038F08B3211F190F4803209F1833229F1C5
:1025300037FC3CC020ED280F2A3050F536FE20C075
:102540008AE0989E200D1124922E06C08D3291F0C3
:10255000803371F7689430F8F30193FD859193FF10
:1025600081913F018111DACF21C0689431F86894DC
:1025700032F8F2CF689433F8EFCF689434F8ECCFA8
:10258000EAE02E9E200D1124222E689435F8E4CF27
:102590008E3229F436FC04C1689436F8DDCF8C36CF
:1025A00019F4689437F8D8CF8836B1F2982F9F7D08
:1025B00095549330E0F08336A1F18337C1F1833530
:1025C00009F063C02801F2E04F0E511CF801C080F1
:1025D000D180692D70E036FC02C06FEF7FEFC6013D
:1025E0000E943A144C01689437F882010AC00C5FCB
:1025F0001F4FFFE3F98388248394912C6501E894AD
:1026000037F833FE2DC0522C8114910471F55520FA
:1026100009F468CFB70180E290E00E9450145A9408
:10262000F6CFF801808189830E5F1F4FE4CF280128
:10263000F2E04F0E511CF801C080D180692D70E08E
:1026400036FC02C06FEF7FEFC6010E9445144C01BB
:102650008201D5CFB70180E290E00E9450142A9405
:102660002814190409F0B0F7CECFF60137FC859194
:1026700037FE81916F01B70190E00E945014511014
:102680005A94F1E08F1A9108BFCF843619F0893639
:1026900009F077C0F80137FE6BC0608171818281DB
:1026A00093810C5F1F4FF32DFF763F2E97FF09C0DC
:1026B00090958095709561957F4F8F4F9F4F68944F
:1026C00037F82AE030E0A5010E948014C82ECA180D
:1026D0008C2C432C36FE0CC0E89440F8C91440F40E
:1026E00034FE05C032FC03C0F32DFE7E4F2E892C34
:1026F00044FE95C0FE01EC0DF11D8081803309F090
:1027000087C0242D297E422E842D8870582E43FCAC
:1027100095C040FE8FC09C2C821418F42C0C922C77
:10272000981844FE91C0B70180E390E00E945014D5
:1027300042FE09C088E790E041FE02C088E590E0D3
:10274000B7010E945014C91408F48AC0CA94D12C4D
:102750009FEFC91AD90ACA0CDB1CF60182916F01DE
:10276000B70190E00E945014AC14BD04B1F74FCFF4
:1027700060817181072E000C880B990B0E5F1F4F33
:1027800092CFD32CE894D4F82AE030E0853739F1A1
:10279000232D297FD22E8F3601F148F48835A9F0F8
:1027A000F701868197812B96E2E10C94F40F803734
:1027B00049F08837A9F7D4FE02C06894D2F820E126
:1027C00030E00DC06894D4F8F6CF34FE03C0822FF9
:1027D0008660D82E20E132E002C028E030E0F80127
:1027E000D7FE0FC060817181828193810C5F1F4F82
:1027F000A5010E948014C82ECA183D2CE89437F811
:1028000067CF6081718190E080E00E5F1F4FF0CF55
:1028100042FC02C0839478CF8394839475CF842D37
:10282000867809F471CFF6CFB70180E290E00E947C
:10283000501483948214C0F3512C73CF522C581827
:10284000821408F46ECFF8CF842D867809F47BCFFC
:102850008BE241FE80E247FC8DE2B70190E071CF50
:10286000B70180E390E00E9450149A946CCF8FEFF0
:102870009FEF99CFFC010590615070400110D8F78F
:10288000809590958E0F9F1F0895FC0161507040B8
:1028900001900110D8F7809590958E0F9F1F089595
:1028A0000F931F93CF93DF93182F092FEB018B8189
:1028B00081FD09C01FEF0FEF812F902FDF91CF9186
:1028C0001F910F91089582FF14C02E813F818C814A
:1028D0009D81281739073CF4E881F981CF010196E1
:1028E0009983888310838E819F8101969F838E8335
:1028F000E3CFE885F985812F0995892BA1F3DACFFC
:10290000FA01AA27283051F1203181F1E8946F9320
:102910006E7F6E5F7F4F8F4F9F4FAF4FB1E03ED0C6
:10292000B4E03CD0670F781F891F9A1FA11D680F64
:10293000791F8A1F911DA11D6A0F711D811D911D97
:10294000A11D20D009F468943F912AE0269F11240C
:102950003019305D3193DEF6CF010895462F477070
:10296000405D4193B3E00FD0C9F7F6CF462F4F70CB
:10297000405D4A3318F0495D31FD4052419302D029
:10298000A9F7EACFB4E0A6959795879577956795CF
:10299000BA95C9F700976105710508959B01AC01CF
:1029A0000A2E06945795479537952795BA95C9F7F6
:1029B000620F731F841F951FA01D089510E0C8E8C3
:1029C000D0E004C0FE010E940F102196C938D10743
:0629D000C9F7F894FFCFE7
:1029D600000012048000000000000B026B01980149
:1029E6005802C901A701BB0100000000AA037D032C
:1029F600D90353037603630354030000000037042E
:102A06000D0A000D0025642C25642C25642C2564F4
:102A16002C25642C25642C3535302C2D3535302C61
:0A2A26003535302C2D353530000019
:00000001FF
