:100000000C9463000C948B000C948B000C948B006C
:100010000C948B000C948B000C948B000C948B0034
:100020000C948B000C948B000C948B000C94B504F6
:100030000C948B000C948B000C948B000C948B0014
:100040000C9413040C948B000C9483040C945D04A6
:100050000C948B000C948B000C948B000C948B00F4
:100060000C948B000C948B000000000024002700EF
:100070002A0000000000250028002B0000000000DE
:1000800023002600290004040404040404040202DA
:100090000202020203030303030301020408102007
:1000A0004080010204081020010204081020000012
:1000B0000008000201000003040700000000000027
:1000C0000000C807E40B11241FBECFEFD8E0DEBF4D
:1000D000CDBF23E0ACE4B1E001C01D92A83AB20765
:1000E000E1F711E0A0E0B1E0E6EFFFE102C005902A
:1000F0000D92AC34B107D9F710E0C2E6D0E004C0ED
:100100002197FE010E94530DC136D107C9F70E9405
:1001100012080C94EE0F0C940000833081F028F448
:10012000813099F08230A9F008958730A9F08830A5
:10013000C9F08430B1F4809180008F7D03C080913C
:1001400080008F7780938000089584B58F7784BD79
:10015000089584B58F7DFBCF8091B0008F77809319
:10016000B00008958091B0008F7DF9CFCF93DF93D9
:10017000282F30E0F901E255FF4F8491F901E6564E
:10018000FF4FD491F901EA57FF4FC491CC23A1F05E
:1001900081110E948D00EC2FF0E0EE0FFF1FE4585C
:1001A000FF4FA591B491EC91ED2381E090E009F42B
:1001B00080E0DF91CF91089580E090E0FACF1F9327
:1001C000CF93DF93282F30E0F901E255FF4F849160
:1001D000F901E656FF4FD491F901EA57FF4FC49158
:1001E000CC23A9F0162F81110E948D00EC2FF0E096
:1001F000EE0FFF1FEE58FF4FA591B4918FB7F89403
:10020000EC91111108C0D095DE23DC938FBFDF91F4
:10021000CF911F910895DE2BF8CFCF93DF9390E01D
:10022000FC01E656FF4F24918A579F4FFC018491B1
:100230008823D1F090E0880F991FFC01E859FF4F07
:10024000A591B491FC01EE58FF4FC591D491611175
:100250000EC09FB7F8948C91E22FE0958E238C937B
:100260002881E223E8839FBFDF91CF9108958FB764
:10027000F894EC91E22BEC938FBFF6CF3FB7F89454
:100280008091F7029091F802A091F902B091FA02E0
:1002900026B5A89B05C02F3F19F00196A11DB11DE1
:1002A0003FBFBA2FA92F982F8827BC01CD01620F1D
:1002B000711D811D911D42E0660F771F881F991FD8
:1002C0004A95D1F70895AF92BF92CF92DF92EF9205
:1002D000FF920F931F93CF93DF936C017B018B01F0
:1002E000040F151FEB015E01AE18BF08C017D10740
:1002F00059F06991D601ED91FC910190F081E02DCA
:10030000C6010995892B79F7C501DF91CF911F911E
:100310000F91FF90EF90DF90CF90BF90AF90089536
:10032000FC01538D448D252F30E0842F90E0821BFB
:10033000930B541710F0CF96089501970895FC0180
:10034000918D828D981761F0A28DAE0FBF2FB11DD8
:100350005D968C91928D9F5F9F73928F90E0089530
:100360008FEF9FEF0895FC01918D828D981731F0EA
:10037000828DE80FF11D858D90E008958FEF9FEF3E
:100380000895FC01918D228D892F90E0805C9F4F14
:10039000821B91098F73992708958BEF92E00E9439
:1003A000C10121E0892B09F420E0822F089580E02B
:1003B00090E0892B29F00E94CD0181110C9400005E
:1003C0000895FC01A48DA80FB92FB11DA35ABF4FEA
:1003D0002C91848D90E001968F739927848FA68944
:1003E000B7892C93A089B1898C91837080648C9398
:1003F000938D848D981306C00288F389E02D808147
:100400008F7D80830895EF92FF920F931F93CF9378
:10041000DF93EC0181E0888F9B8D8C8D98131AC03F
:10042000E889F989808185FF15C09FB7F894EE8926
:10043000FF896083E889F989808183708064808383
:100440009FBF81E090E0DF91CF911F910F91FF90CE
:10045000EF900895F62E0B8D10E00F5F1F4F0F7376
:100460001127E02E8C8D8E110CC00FB607FCFACF31
:10047000E889F989808185FFF5CFCE010E94E101ED
:10048000F1CFEB8DEC0FFD2FF11DE35AFF4FF08202
:100490009FB7F8940B8FEA89FB8980818062CFCF68
:1004A000CF93DF93EC01888D8823B9F0AA89BB89AB
:1004B000E889F9898C9185FD03C0808186FD0DC096
:1004C0000FB607FCF7CF8C9185FFF2CF808185FFB7
:1004D000EDCFCE010E94E101E9CFDF91CF910895E8
:1004E000813029F48091AB029091AC020895823062
:1004F00029F48091AD029091AE020895833029F4E1
:100500008091AF029091B0020895843029F48091D7
:10051000B1029091B2020895853029F48091B3021E
:100520009091B4020895863029F48091B50290919B
:10053000B6020895873029F48091B7029091B802ED
:100540000895883029F48091B9029091BA020895F3
:10055000893029F48091BB029091BC0208958A30C1
:1005600029F48091BD029091BE0208958B3029F448
:100570008091BF029091C00208958C3029F480913F
:10058000C1029091C202089508950CB405FC0DC0FB
:100590009EBD00000DB407FEFDCF9EB58EBD0000D0
:1005A0000DB407FEFDCF8EB508958EBD00000DB4CD
:1005B00007FEFDCF8EB59EBD00000DB407FEFDCF3A
:1005C0009EB50895CF93DF93C62FD0E0D068D82B87
:1005D00060E08AE00E94DF00CE010E94C502EC01CB
:1005E00061E08AE00E94DF00CE01DF91CF910895A3
:1005F000CF93DF93C82F60E08AE00E94DF0080E0A5
:100600009C2F0E94C502EC0161E08AE00E94DF009D
:10061000CE01DF91CF910895CF93DF93C82FD0E023
:10062000DC2FCC2760E08AE00E94DF00CE01906CD6
:100630000E94C502EC0161E08AE00E94DF00CE0169
:10064000DF91CF910895CF93DF93EC018881998159
:10065000009711F00E94980E198218821D821C8248
:100660001B821A82DF91CF910895FC0180819181D4
:10067000009711F00C94980E08950F931F93CF9349
:10068000DF93EC0188819981009759F02A813B81A1
:100690002617370730F081E0DF91CF911F910F913E
:1006A00008958B016F5F7F4F0E94210F009759F0D3
:1006B000998388831B830A832C813D81232B59F7DF
:1006C000FC011082E8CF80E0E7CF0F931F93CF9318
:1006D000DF93EC010C811D810F5F1F4FB8010E9459
:1006E0003D03882391F0288139818C819D8160E3CD
:1006F00071E0820F931F0E94E70F1D830C83CE01D0
:10070000DF91CF911F910F910895CE010E94230395
:10071000F6CFEF92FF920F931F93CF93DF93EC01ED
:10072000FB01E080F180E114F10411F104811581F5
:1007300001151105A9F08C819D81080F191FB801C1
:10074000CE010E943D03882399F0288139818C8154
:100750009D81B701820F931F0E94E70F1D830C83B9
:10076000CE01DF91CF911F910F91FF90EF900895EF
:10077000CE010E942303F4CFEF92FF920F931F93B9
:10078000CF93DF93EC017B018A01BA010E943D0304
:1007900081110BC0CE010E942303CE01DF91CF91C6
:1007A0001F910F91FF90EF9008951D830C83B70167
:1007B000888199810E94E70FF0CFFB010190002012
:1007C000E9F73197AF01461B570B0C94BC030F930D
:1007D0001F93CF93DF93CDB7DEB762970FB6F89430
:1007E000DEBF0FBECDBF8C01CB01F801118210829C
:1007F00013821282158214824AE0BE016F5F7F4F1E
:100800000E94EC0BBE016F5F7F4FC8010E94DD03A9
:1008100062960FB6F894DEBF0FBECDBFDF91CF91C9
:100820001F910F9108951F920F920FB60F921124EE
:100830002F933F938F939F93AF93BF938091F30236
:100840009091F402A091F502B091F6023091F2027B
:1008500023E0230F2D3758F50196A11DB11D2093DC
:10086000F2028093F3029093F402A093F502B09306
:10087000F6028091F7029091F802A091F902B091EE
:10088000FA020196A11DB11D8093F7029093F80220
:10089000A093F902B093FA02BF91AF919F918F910B
:1008A0003F912F910F900FBE0F901F90189526E843
:1008B000230F0296A11DB11DD2CF1F920F920FB62A
:1008C0000F9211242F933F934F935F936F937F93D6
:1008D0008F939F93AF93BF93EF93FF938BEF92E030
:1008E0000E94E101FF91EF91BF91AF919F918F9194
:1008F0007F916F915F914F913F912F910F900FBE1C
:100900000F901F9018951F920F920FB60F921124FF
:100910002F938F939F93EF93FF93E0910B03F091AD
:100920000C038081E0911103F091120382FD1BC042
:100930009081809114038F5F8F732091150382172C
:1009400041F0E0911403F0E0E550FD4F958F809366
:100950001403FF91EF919F918F912F910F900FBEF4
:100960000F901F9018958081F4CF1F920F920FB6B1
:100970000F9211244F925F926F927F928F929F926B
:10098000AF92BF92CF92DF92EF92FF921F932F937D
:100990003F934F935F936F937F938F939F93AF9307
:1009A000BF93EF93FF93CF93DF93CDB7DEB72A9733
:1009B000DEBFCDBF61E082E00E94DF0080E10E94E7
:1009C000B600892B39F482E090E09093AA028093DC
:1009D000A9020AC081E10E94B600019709F067C030
:1009E0001092AA021092A9028091A7029091A802E7
:1009F0000E94F802E091A702F091A802EE0FFF1FFB
:100A0000E357FD4F918380838091A9029091AA02C0
:100A1000009709F44FC0019709F4B8C1A091A7024B
:100A2000B091A802E091A702F091A802AA0FBB1F03
:100A3000A357BD4F8D919C91EE0FFF1FE555FD4FC4
:100A4000918380838091A7029091A8020C970CF467
:100A500095C21092A8021092A70260E082E00E9464
:100A6000DF002A960FB6F894DEBF0FBECDBFDF9130
:100A7000CF91FF91EF91BF91AF919F918F917F9116
:100A80006F915F914F913F912F911F91FF90EF9048
:100A9000DF90CF90BF90AF909F908F907F906F909E
:100AA0005F904F900F900FBE0F901F90189581E0B0
:100AB00090E08BCF8091A7029091A8022091A7028D
:100AC0003091A8021CE0189FF001199FF00D11242D
:100AD000EF50FE4F84819581A681B781129FF0016E
:100AE000139FF00D1124EF50FE4F80839183A2835A
:100AF000B3838091A7029091A8022091A702309120
:100B0000A802189FF001199FF00D1124EF50FE4F1D
:100B100080859185A285B385129FF001139FF00D0A
:100B20001124EF50FE4F84839583A683B783E09111
:100B3000A702F091A802EE0FFF1FE357FD4F60815F
:100B400071812091A7023091A8023A832983072E50
:100B5000000C880B990B0E94230C49815A81149F29
:100B6000F001159FF00D1124EF50FE4F6087718743
:100B7000828793878091A7029091A802189FF00125
:100B8000199FF00D1124EF50FE4F60817181828119
:100B900093812091A7023091A802129FF001139F28
:100BA000F00D1124EF50FE4F448055806680778011
:100BB0002091A7023091A802129FF001139FF00D1F
:100BC0001124EF50FE4FC084D184E284F38420913D
:100BD000A7023091A802129FF001139FF00D11247B
:100BE000EB5AFE4F208131814281538129833A8320
:100BF0004B835C832091A7023091A802129FF001E1
:100C0000139FF00D1124EB5AFE4F2481358146814C
:100C100057812D833E834F8358874091A70250917F
:100C2000A8025A87498725EB37E348E75FE30E942C
:100C30005E0C4B015C0124EB38EC46EE5FE3C30134
:100C4000B2010E945E0C9B01AC01C501B4010E947F
:100C5000590D4B015C0125EB37E348E75FE3C70122
:100C6000B6010E945E0C9B01AC01C501B4010E945B
:100C70005A0D6B017C012CED38E640E75FE369819A
:100C80007A818B819C810E945E0C9B01AC01C70123
:100C9000B6010E94590D6B017C012DE635EC46EE44
:100CA0005FE36D817E818F8198850E945E0C9B0140
:100CB000AC01C701B6010E945A0D29853A85129FE1
:100CC000F001139FF00D1124EB5AFE4F60877187DE
:100CD000828793878091A7029091A8022091A70212
:100CE0003091A802189FF001199FF00D1124EB5AC2
:100CF000FE4F84819581A681B781129FF001139FD9
:100D0000F00D1124EB5AFE4F80839183A283B383AD
:100D10008091A7029091A8022091A7023091A80289
:100D2000189FF001199FF00D1124EB5AFE4F80859A
:100D30009185A285B385129FF001139FF00D1124B8
:100D4000EB5AFE4F84839583A683B7838091A702D5
:100D50009091A802189FF001199FF00D1124EB5AF1
:100D6000FE4F60857185828593854091A7025091E1
:100D7000A8025A8349830E94C60DE981FA81EE0FC9
:100D8000FF1FE357FD4F7183608348CE8091A70218
:100D90009091A8022091A7023091A8021CE0189F10
:100DA000F001199FF00D1124EF50FE4F84819581C1
:100DB000A681B781129FF001139FF00D1124EF500F
:100DC000FE4F80839183A283B3838091A702909189
:100DD000A8022091A7023091A802189FF001199F44
:100DE000F00D1124EF50FE4F80859185A285B385CB
:100DF000129FF001139FF00D1124EF50FE4F8483DA
:100E00009583A683B783E091A702F091A802EE0F25
:100E1000FF1FE357FD4F608171812091A702309140
:100E2000A8023A832983072E000C880B990B0E9495
:100E3000230C49815A81149FF001159FF00D112454
:100E4000EF50FE4F60877187828793878091A7025A
:100E50009091A802189FF001199FF00D1124EF50F6
:100E6000FE4F60817181828193812091A702309130
:100E7000A802129FF001139FF00D1124EF50FE4FB6
:100E800044805580668077802091A7023091A80227
:100E9000129FF001139FF00D1124EF50FE4FC084FC
:100EA000D184E284F3842091A7023091A802129F9A
:100EB000F001139FF00D1124EB5AFE4F2081318178
:100EC0004281538129833A834B835C832091A7021B
:100ED0003091A802129FF001139FF00D1124EB5ADC
:100EE000FE4F24813581468157812D833E834F8378
:100EF00058874091A7025091A8025A87498725EB4D
:100F000037E348E75FE30E945E0C4B015C0126E09B
:100F100032E14CEE5FE3C301B2010E945E0C9B0123
:100F2000AC01C501B4010E94590D4B015C0125EBD8
:100F300037E348E75FE3C701B6010E945E0C9B01FF
:100F4000AC01C501B4010E945A0D6B017C012CED6E
:100F500038E640E75FE369817A818B819C810E945A
:100F60005E0C9B01AC01C701B6010E94590D6B01DB
:100F70007C012FEB3EE04CEE5FE393CE8091A70225
:100F80009091A80201969093A8028093A70265CD44
:100F9000EBEFF2E01382128288EE93E0A0E0B0E083
:100FA00084839583A683B78382E291E091838083D3
:100FB00085EC90E09587848784EC90E0978786871E
:100FC00080EC90E0918B808B81EC90E0938B828B16
:100FD00082EC90E0958B848B86EC90E0978B868BEF
:100FE000118E128E138E148EEEE9F3E011821082B0
:100FF000138212821582148250E040E06AE471E0AC
:10100000CF010E94BC03E8E9F3E011821082138251
:1010100012821582148250E040E06AE471E0CF0150
:101020000C94BC03CF93DF93CDB7DEB7CE54D10978
:101030000FB6F894DEBF0FBECDBF789484B5826042
:1010400084BD84B5816084BD85B5826085BD85B56C
:10105000816085BD80916E00816080936E001092EA
:101060008100809181008260809381008091810065
:1010700081608093810080918000816080938000F6
:101080008091B10084608093B1008091B000816054
:101090008093B00080917A00846080937A00809180
:1010A0007A00826080937A0080917A0081608093D8
:1010B0007A0080917A00806880937A001092C10053
:1010C0001FB7F8948091C502811127C0E0E9F0E0D4
:1010D0008491E4EAF0E09491E82FF0E0EE0FFF1F36
:1010E000E859FF4FA591B491EC91E92321F461E017
:1010F0008AE00E94DF0061E08AE00E940D018CB569
:1011000080618CBD8CB580648CBD61E08DE00E94F7
:101110000D0161E08BE00E940D018091C5028F5F9F
:101120008093C5021FBF61E08AE00E940D0160E06C
:101130008FE00E940D0160E080E10E940D0160E0FF
:1011400081E10E940D0160E086E00E940D0160E0F7
:1011500087E00E940D0161E084E00E940D0161E0E2
:1011600085E00E940D0161E08AE00E94DF0080912D
:101170007A00887F80937A0080917A0084608093DF
:101180007A00E0910B03F0910C0382E08083E09100
:101190000703F09108031082E0910903F0910A031C
:1011A00087E0808310921303E0910F03F091100306
:1011B00086E08083E0910D03F0910E0380818061D1
:1011C0008083E0910D03F0910E038081886080831D
:1011D000E0910D03F0910E03808180688083E0919F
:1011E0000D03F0910E0380818F7D808380E58CBD9F
:1011F00081E08DBD0E943E014B015C012AEFC22EB1
:10120000D12CE12CF12C0E943E01681979098A0940
:101210009B09683E734081059105A8F321E0C21A3D
:10122000D108E108F10888EE880E83E0981EA11C21
:10123000B11CC114D104E104F10429F76EED80E082
:101240000E94E20260E281E00E94E20268E282E043
:101250000E94E20260E083E00E94E20268ED84E026
:101260000E94E20260E085E00E94E20260E086E027
:101270000E94E20260E087E00E94E2026EE188E004
:101280000E94E20265E089E00E94E2026BE28AE0ED
:101290000E94E20266E08BE00E94E20265E08CE0E0
:1012A0000E94E20261E08DE00E94E20260E08EE0D6
:1012B0000E94E20260E08FE00E94E20260E080E1D2
:1012C0000E94E20260E081E10E94E2028EE00E9460
:1012D0000C038EE00E940C038EE00E940C03082F8A
:1012E0008FE00E940C038FE00E940C038FE00E94AD
:1012F0000C03F82E11E01093D002602F62608EE094
:101300000E94E2021093CF02602F66608EE00E947E
:10131000E2021093CE02602F6E608EE00E94E20225
:101320001093CD02602F6E618EE00E94E202109356
:10133000CC02602F6E638EE00E94E2021093CB021B
:10134000602F6E678EE00E94E2021093CA020E6F59
:10135000602F8EE00E94E2021093C9026F2D61603F
:101360008FE00E94E2021093C8026F2D63608FE04D
:101370000E94E2021093C7026F2D67608FE00E9407
:10138000E2021093C6026F2D6F608FE00E94E202AE
:101390001093CF02602F8EE00E94E20260E08AE0AC
:1013A0000E94DF0080E095E50E94C50261E08AE0CE
:1013B0000E94DF0009E010E088E20E940C03015067
:1013C0001109D1F702E111E0F80181918F010E942A
:1013D000F802F1E00E311F07B9F761E082E00E94E8
:1013E0000D0160E082E00E94DF008091B6008F79FD
:1013F0008093B600F8941092800010928100809142
:101400008100886080938100809181008260809358
:1014100081008DE491E09093890080938800809111
:101420006F00826080936F0078948091D10262E3B4
:1014300071E0811102C06EE371E088E993E00E94DF
:10144000DD03F894E091F002F091F102EE5EFE4FC0
:1014500080810E947002092E000CAA0BBB0B8093A6
:10146000EC029093ED02A093EE02B093EF02789419
:10147000E091F002F091F102EA5FFE4F808181116C
:1014800008C01092EC021092ED021092EE0210923F
:10149000EF026091EC027091ED028091EE0290916A
:1014A000EF020E94230C24E13EEA47E45EE30E943F
:1014B0005E0C0E94C60D7093EB026093EA02F894F2
:1014C000E091F002F091F102EE5EFE4F81810E9408
:1014D0007002092E000CAA0BBB0B8093EC029093B8
:1014E000ED02A093EE02B093EF0278940091F00227
:1014F0001091F10278012FEFE21AF20AF701EA5F88
:10150000FE4F8081811108C01092EC021092ED0212
:101510001092EE021092EF026091EC027091ED02D7
:101520008091EE029091EF020E94230C24E13EEAAA
:1015300047E45EE30E945E0C0E94C60DF801EE0FC8
:10154000FF1FEE52FD4F2091EA023091EB023183F2
:101550002083F701EE0FFF1FEE52FD4F7183608372
:101560000C3011050CF429C16091E8027091E90278
:10157000CE0101960E94E7036091E6027091E702B6
:10158000CE0107960E94E7036091E4027091E502A4
:10159000CE010D960E94E7036091E2027091E30292
:1015A000CE0143960E94E7036091E0027091E10250
:1015B000CE0149960E94E7036091DE027091DF023E
:1015C000CE014F960E94E7036091DC027091DD022C
:1015D000CE0185960E94E7036091DA027091DB02EA
:1015E000CE018B960E94E7036091D8027091D902D8
:1015F000CE01C1960E94E7036091D6027091D70296
:10160000CE01C7960E94E7036091D4027091D50283
:10161000CE01CD960E94E7036091D2027091D30271
:10162000CE01875B9F4F0E94E70325961FAE1EAE3B
:10163000259727961FAE1EAE279729961FAE1EAE82
:1016400029972B966EAD7FAD2B976115710549F0EB
:101650002F964EAD5FAD2F97CE018D5B9F4F0E94B1
:10166000BC03CE018D5B9F4F0E946503BE01635C8E
:101670007F4F0E9489030E946503BE01695C7F4F12
:101680000E9489030E946503BE016F5C7F4F0E9428
:1016900089030E946503BE01655D7F4F0E94890337
:1016A0000E946503BE016B5D7F4F0E9489030E940B
:1016B0006503BE01615E7F4F0E9489030E9465033E
:1016C000BE01675E7F4F0E9489030E946503BE01D1
:1016D0006D5E7F4F0E9489030E946503BE01635FB8
:1016E0007F4F0E9489030E946503BE01695F7F4F9F
:1016F0000E9489030E946503BE016F5F7F4F0E94B5
:10170000890368E973E00E948903FC0144815581E3
:10171000608171818BEF92E00E94630142E050E0B2
:1017200068E471E08BEF92E00E946301CE018D5B73
:101730009F4F0E943503CE01875B9F4F0E94350368
:10174000CE01CD960E943503CE01C7960E94350387
:10175000CE01C1960E943503CE018B960E943503BF
:10176000CE0185960E943503CE014F960E94350327
:10177000CE0149960E943503CE0143960E9435035F
:10178000CE010D960E943503CE0107960E943503C7
:10179000CE0101960E9435031092F1021092F002E0
:1017A00080E090E0892B09F440CE0E94CD0188238F
:1017B00009F43BCE0E94000038CE0E5F1F4F1093FD
:1017C000F1020093F002ECCF88E993E00E94350328
:1017D0008EE993E00C943503BB274A3031F499230A
:1017E00022F4BDE2909581959F4F0C94F80BBB2796
:1017F000FB015527AA27880F991FAA1FA41710F0CD
:10180000A41B83955051B9F7A05DAA3308F0A95DD8
:10181000A193009779F7B111B1931192CB010C9478
:10182000110CDC01FC01672F71917723E1F73297EE
:1018300004C07C916D9370836291AE17BF07C8F3AB
:101840000895E89409C097FB3EF4909580957095B3
:1018500061957F4F8F4F9F4F9923A9F0F92F96E9FC
:10186000BB279395F695879577956795B795F11171
:10187000F8CFFAF4BB0F11F460FF1BC06F5F7F4F0E
:101880008F4F9F4F16C0882311F096E911C0772320
:1018900021F09EE8872F762F05C0662371F096E829
:1018A000862F70E060E02AF09A95660F771F881FF8
:1018B000DAF7880F9695879597F908950E94710C2D
:1018C0000C94E20C0E94D40C38F00E94DB0C20F047
:1018D000952311F00C94CB0C0C94D10C11240C9486
:1018E000160D0E94F30C70F3959FC1F3950F50E015
:1018F000551F629FF001729FBB27F00DB11D639FC2
:10190000AA27F00DB11DAA1F649F6627B00DA11D67
:10191000661F829F2227B00DA11D621F739FB00D0D
:10192000A11D621F839FA00D611D221F749F33277D
:10193000A00D611D231F849F600D211D822F762F16
:101940006A2F11249F5750409AF0F1F088234AF0F3
:10195000EE0FFF1FBB1F661F771F881F915050405F
:10196000A9F79E3F510580F00C94CB0C0C94160DFA
:101970005F3FE4F3983ED4F3869577956795B795E6
:10198000F795E7959F5FC1F7FE2B880F911D969500
:10199000879597F9089597F99F6780E870E060E070
:1019A00008959FEF80EC089500240A9416161706F8
:1019B00018060906089500240A9412161306140640
:1019C00005060895092E0394000C11F4882352F0A3
:1019D000BB0F40F4BF2B11F460FF04C06F5F7F4F5B
:1019E0008F4F9F4F089557FD9058440F551F59F042
:1019F0005F3F71F04795880F97FB991F61F09F3FFC
:101A000079F087950895121613061406551FF2CF24
:101A10004695F1DF08C0161617061806991FF1CF74
:101A200086957105610508940895E894BB2766279B
:101A30007727CB0197F908952F923F924F925F92AB
:101A40006F927F928F929F92AF92BF92CF92DF92CE
:101A5000EF92FF920F931F93CF93DF93CDB7DEB733
:101A6000CA1BDB0B0FB6F894DEBF0FBECDBF0994C7
:101A70002A88398848885F846E847D848C849B841E
:101A8000AA84B984C884DF80EE80FD800C811B812C
:101A9000AA81B981CE0FD11D0FB6F894DEBF0FBE5B
:101AA000CDBFED010895EE0FFF1F0590F491E02DDD
:101AB00009945058BB27AA270E94710D0C94E20C80
:101AC0000E94D40C38F00E94DB0C20F039F49F3FC8
:101AD00019F426F40C94D10C0EF4E095E7FB0C9469
:101AE000CB0CE92F0E94F30C58F3BA176207730767
:101AF0008407950720F079F4A6F50C94150D0EF4E3
:101B0000E0950B2EBA2FA02D0B01B90190010C010D
:101B1000CA01A0011124FF27591B99F0593F50F425
:101B2000503E68F11A16F040A22F232F342F44277D
:101B3000585FF3CF469537952795A795F040539575
:101B4000C9F77EF41F16BA0B620B730B840BBAF045
:101B50009150A1F0FF0FBB1F661F771F881FC2F7B0
:101B60000EC0BA0F621F731F841F48F487957795C4
:101B70006795B795F7959E3F08F0B0CF9395880F7E
:101B800008F09927EE0F9795879508950E94CD0D3F
:101B90006894B1110C94160D08950E94FB0C88F006
:101BA0009F5798F0B92F9927B751B0F0E1F0660F21
:101BB000771F881F991F1AF0BA95C9F714C0B13062
:101BC00091F00E94150DB1E008950C94150D672F4A
:101BD000782F8827B85F39F0B93FCCF38695779591
:101BE0006795B395D9F73EF490958095709561957A
:101BF0007F4F8F4F9F4F08950F931F93CF93DF9386
:101C00008230910510F482E090E0E091A603F0911B
:101C1000A70330E020E0B0E0A0E0309799F4211570
:101C2000310509F44AC0281B390B24303105D8F599
:101C30008A819B816115710589F1FB019383828300
:101C4000FE0111C04081518102811381481759075B
:101C5000E0F04817590799F4109761F012960C9329
:101C6000129713961C933296CF01DF91CF911F915B
:101C70000F9108950093A6031093A703F4CF2115A5
:101C8000310551F04217530738F0A901DB019A01E1
:101C9000BD01DF01F801C1CFEF01F9CF9093A70398
:101CA0008093A603CDCFFE01E20FF31F81939193A2
:101CB0002250310939832883D7CF2091A403309152
:101CC000A503232B41F420910201309103013093AD
:101CD000A5032093A4032091000130910101211557
:101CE000310541F42DB73EB74091040150910501F3
:101CF000241B350BE091A403F091A503E217F30731
:101D0000A0F42E1B3F0B2817390778F0AC014E5F6B
:101D10005F4F2417350748F04E0F5F1F5093A50300
:101D20004093A403819391939FCFF0E0E0E09CCF98
:101D3000CF93DF930097E9F0FC0132971382128270
:101D4000A091A603B091A703ED0130E020E0109729
:101D5000A1F420813181820F931F2091A40330913F
:101D6000A5032817390709F061C0F093A503E09394
:101D7000A403DF91CF910895EA01CE17DF07E8F5BC
:101D80004A815B819E0141155105B1F7E901FB8351
:101D9000EA8349915991C40FD51FEC17FD0761F4EF
:101DA000808191810296840F951FE9019983888330
:101DB000828193819B838A83F0E0E0E012968D918B
:101DC0009C9113970097B9F52D913C911197CD01F6
:101DD0000296820F931F2091A4033091A503281728
:101DE000390739F6309751F51092A7031092A603E0
:101DF000B093A503A093A403BCCFD383C283408137
:101E00005181840F951FC817D90761F44E5F5F4F4A
:101E100088819981480F591F518340838A819B8112
:101E2000938382832115310509F0B0CFF093A70386
:101E3000E093A6039ECFFD01DC01C0CF1382128286
:101E4000D7CFB0E0A0E0E7E2FFE00C941E0D8C01DC
:101E5000009751F4CB010E94FC0D8C01C801CDB755
:101E6000DEB7E0E10C943A0DFC01E60FF71F9C0190
:101E700022503109E217F30708F49DC0D901CD9132
:101E8000DC911197C617D70798F0C530D10530F30C
:101E9000CE0104978617970708F3C61BD70B229726
:101EA000C193D1936D937C93CF010E94980ED6CFAE
:101EB0005B01AC1ABD0A4C018C0E9D1EA091A603BD
:101EC000B091A703512C412CF12CE12C109731F546
:101ED0008091A4039091A5038815990509F05CC031
:101EE0004616570608F058C08091000190910101F4
:101EF000009741F48DB79EB74091040150910501C0
:101F0000841B950BE817F90708F055C0F093A5035B
:101F1000E093A403F90171836083A0CF8D919C911C
:101F2000119712966C90129713967C901397A815A0
:101F3000B90559F56C0142E0C40ED11CCA14DB048A
:101F400020F1AC014A195B09DA011296159780F06D
:101F50006282738251834083D9016D937C93E11433
:101F6000F10471F0D7011396FC93EE93129776CF9C
:101F700022968C0F9D1FF90191838083F301EFCF8F
:101F8000F093A703E093A60369CF4816590608F417
:101F90002C017D01D3019ACFCB010E94FC0D7C0165
:101FA000009749F0AE01B8010E94DE0FC8010E94FF
:101FB000980E870153CF10E000E050CFFB01DC0109
:101FC00002C001900D9241505040D8F70895FB0196
:101FD000DC0101900D920020E1F7089510E0C2E6C7
:101FE000D0E004C0FE010E94530D2196C336D107F4
:061FF000C9F7F894FFCFD1
:101FF6000000A803800001010101010101010101A6
:1020060001010102030405060708090A0B0C00007A
:1020160000000302630190015002C1019F01B30158
:102026002C002C323230302C2D32323030002C3510
:0C20360035302C2D353530000D0A00002F
:00000001FF
